:020000040800F2
:10000000002800206D180008451600084D1600084D
:10001000551600085D16000865160008000000006F
:100020000000000000000000000000006D16000845
:1000300079160008000000008516000891160008D7
:10004000B5180008B5180008B5180008B51800085C
:10005000B5180008B5180008B5180008B51800084C
:10006000B5180008B5180008B5180008B51800083C
:10007000B5180008B5180008B5180008B51800082C
:10008000B5180008B5180008B5180008B51800081C
:10009000B5180008B5180008B5180008B51800080C
:1000A000B5180008B5180008B5180008B5180008FC
:1000B0009D160008B518000800000000B5180008DB
:1000C000B51800080000000000000000B518000886
:1000D00000000000B5180008B51800080000000076
:1000E000B5180008B5180008B51800080000000091
:1000F0000000000000000000000000000000000000
:0C01000000000000000000005FF808F1A3
:10010C0010B5054C237833B9044B13B10448AFF345
:10011C0000800123237010BD880000200000000027
:10012C00BC2E000808B5034B1BB103490348AFF3C1
:10013C00008008BD000000008C000020BC2E0008D0
:10014C0080B582B000AFAF4B1B68013B042B00F2B3
:10015C00378101A252F823F07901000895010008BB
:10016C002D020008B902000843030008A54B022227
:10017C001A6001214FF47A7001F0B8F9002140F6B1
:10018C00B83001F0B3F924E101F092FA9E4B5B68B0
:10019C00184600F0E9FD9C4BDB68184600F088FD22
:1001AC009A4B5B68012B0ED1974B5B68013B964ACF
:1001BC005360954BDB68013B934AD36001214FF4AC
:1001CC007A7001F093F9914B1B68012B12D18D4B76
:1001DC0003221A6001214FF47A7001F087F98C4BDD
:1001EC009B6801334FF47A7202FB03F3002118462B
:1001FC0001F07CF9012000F00DF90346012B40F0D1
:10020C00E180804B0C221A60022000F009FE0420D1
:10021C0000F094FF012142F2107001F067F9D1E077
:10022C0001F06AFA784B9B68184600F09DFD764BFE
:10023C00DB68184600F03CFD744B5B68012B0ED15B
:10024C00714B9B68013B704A93606F4BDB68013BC1
:10025C006D4AD36001214FF47A7001F047F96B4B72
:10026C001B68012B12D1674B04221A6001214FF439
:10027C007A7001F03BF9664B5B6801334FF47A728C
:10028C0002FB03F30021184601F030F9012000F0C5
:10029C00C1F80346012B40F097805A4B0D221A608F
:1002AC00012142F2107001F021F98DE001F048FAC1
:1002BC00554B1B68184600F057FD534B1B691846ED
:1002CC0000F0F6FC514B5B68012B0ED14E4B1B68BA
:1002DC00013B4D4A13604C4B1B69013B4A4A13616D
:1002EC0001214FF47A7001F001F9484B1B68012B86
:1002FC0012D1444B05221A6001214FF47A7001F09F
:10030C00F5F8434B9B6801334FF47A7202FB03F30D
:10031C000021184601F0EAF8012000F07BF80346B2
:10032C00012B53D1374B0E221A60012142F210706F
:10033C0001F0DCF84AE001F027FA334B1B68184651
:10034C0000F012FD304B5B69184600F0B1FC2F4BEE
:10035C005B68012B0ED12C4B1B68013B2A4A1360A6
:10036C00294B5B69013B284A536101214FF47A7098
:10037C0001F0BCF8254B1B68012B12D1214B02223A
:10038C001A60234B5B6801334FF47A7202FB03F360
:10039C000021184601F0AAF801214FF47A7001F0FF
:1003AC00A5F8012000F036F80346012B10D1154BAF
:1003BC000F221A60012142F2107001F097F807E049
:1003CC0000BF06E000BF04E000BF02E000BF00E099
:1003DC0000BF0D4B1B68002B10DA00237B600AE07A
:1003EC000B4A7B6852F8232007497B6841F823208D
:1003FC007B6801337B607B68052BF1D900BF083724
:10040C00BD4680BD000000201C00002024010020FF
:10041C000400002080B483B000AF78607B68013B9F
:10042C00094A52F82330012B07D17B68013B064A5D
:10043C00002142F82310012300E0002318460C375A
:10044C00BD4680BC704700BFA400002080B483B0C0
:10045C0000AF7860044A7B68012142F8231000BF8A
:10046C000C37BD4680BC7047A400002080B582B01C
:10047C0000AF00237B608FE04C4A7B6852F823204E
:10048C004B497B6841F823204A4A7B6852F8232069
:10049C0046497B6841F823207B68032B31D801A2A5
:1004AC0052F823F0C1040008D5040008E904000840
:1004BC00FD0400084FF400513F4801F0E3FC0346F3
:1004CC001A463C4B1A601CE04FF480413B4801F04B
:1004DC00D9FC03461A46374B5A6012E04FF40041E0
:1004EC00364801F0CFFC03461A46324B9A6008E0BE
:1004FC004FF40051314801F0C5FC03461A462D4B10
:10050C00DA602B4A7B6852F8232028497B6851F823
:10051C0023309A423DD1254A7B6852F82320254945
:10052C007B6851F823309A4233D1254A7B6852F8C4
:10053C00232020497B6851F823309A4214D01D4A5D
:10054C007B6852F823201E497B6841F82320194A06
:10055C007B6852F82330002B1BD17868FFF776FFAD
:10056C00184BC8221A6014E0164B1B68013B154A45
:10057C001360144B1B68002B0BD10E4A7B6852F88E
:10058C002330002B02D17868FFF760FF0D4BC82297
:10059C001A607B6801337B607B68032B7FF76CAF41
:1005AC0000BF00BF0837BD4680BD00BF440000201F
:1005BC00340000205400002000100140000C0140C9
:1005CC00640000207400002080B500AF01F06EF9CB
:1005DC0000F016F800F09CF800F04EF8074802F016
:1005EC00AFF80221282000F081FFFFF7A9FD00F0F1
:1005FC001FF900F029FA00BFF7E700BFB400002094
:10060C0080B590B000AF07F11803282200211846DE
:10061C0002F022FC3B1D00221A605A609A60DA60DC
:10062C001A610223BB610123BB621023FB6200230E
:10063C007B6307F11803184601F054FC0346002BAA
:10064C0001D000F0EFF80F237B600023BB60002388
:10065C00FB6000233B6100237B613B1D002118469E
:10066C0001F0C2FE0346002B01D000F0DBF800BF06
:10067C004037BD4680BD000080B586B000AF07F1A5
:10068C00080300221A605A609A60DA603B46002226
:10069C001A605A601D4B4FF080421A601B4B41F69A
:1006AC003F725A60194B00229A60184B0922DA608B
:1006BC00164B00221A61154B00229A61134801F067
:1006CC00EFFF0346002B01D000F0ACF84FF4805341
:1006DC00BB6007F1080319460C4802F06DF903469C
:1006EC00002B01D000F09EF800233B6000237B60C0
:1006FC003B461946054802F045FB0346002B01D04A
:10070C0000F090F800BF1837BD4680BDB400002043
:10071C0080B588B000AF07F1100300221A605A6050
:10072C009A60DA60354B9B69344A43F0100393614D
:10073C00324B9B6903F01003FB60FB682F4B9B69EA
:10074C002E4A43F0040393612C4B9B6903F0040382
:10075C00BB60BB68294B9B69284A43F00803936133
:10076C00264B9B6903F008037B607B68002247F6ED
:10077C00FE71234801F09DFB002240F63F412148C9
:10078C0001F097FB4FF400533B6100237B61012385
:10079C00BB6107F1100319461B4801F0F7F947F646
:1007AC00FE733B6101237B610023BB610223FB6170
:1007BC0007F110031946124801F0E8F940F63F43DF
:1007CC003B6101237B610023BB610223FB6107F1C9
:1007DC00100319460B4801F0D9F94FF460433B6103
:1007EC0000237B610123BB6107F110031946054807
:1007FC0001F0CCF900BF2037BD4680BD001002408F
:10080C0000080140000C01400010014080B582B08E
:10081C0000AF7860FFF72AFE00F088FE00BF0837B3
:10082C00BD4680BD80B400AF72B600BF00BFFDE70F
:10083C0080B500AF814B1B680C3B032B00F2FC8096
:10084C0001A252F823F000BF65080008DD0800087B
:10085C0055090008CB09000800F02AFF784BDB682B
:10086C00184600F025FA764B5B68184600F07CFAC7
:10087C000120FFF7CFFD0346002B08D0012141F2E8
:10088C00707000F033FE6D4B0D221A60CDE06D4B95
:10089C005B68002B09D10220FFF7BCFD0346002B3F
:1008AC0003D0664B16221A60BFE0664B5B68012BC7
:1008BC0040F0BB80002140F6B83000F017FE01215B
:1008CC004FF47A7000F012FE5C4B02221A60ACE01E
:1008DC0000F012FF5A4B9B68184600F045FA584B33
:1008EC00DB68184600F0E4F90120FFF793FD03469E
:1008FC00002B08D0514B0E221A60012141F270706E
:10090C0000F0F4FD93E04F4B5B68002B09D1022003
:10091C00FFF780FD0346002B03D0484B17221A60CB
:10092C0085E0484B5B68012B40F0818000214FF43F
:10093C00FA6000F0DBFD01214FF47A7000F0D6FD77
:10094C003E4B02221A6072E000F0FAFE3C4B1B6830
:10095C00184600F009FA3A4B1B69184600F0A8F942
:10096C000120FFF757FD0346002B08D0334B0F2215
:10097C001A60012141F2707000F0B8FD59E0314B62
:10098C005B68002B09D10220FFF744FD0346002BC6
:10099C0003D02A4B16221A604BE02A4B5B68012BC2
:1009AC0047D1002140F6B83000F0A0FD01214FF4F2
:1009BC007A7000F09BFD214B04221A6039E000F0A4
:1009CC00E3FE1F4B1B68184600F0CEF91C4B5B690D
:1009DC00184600F06DF90120FFF71CFD0346002BB3
:1009EC0003D0164B0C221A6025E0164B5B68002BCB
:1009FC0009D10220FFF70EFD0346002B03D00F4B4D
:100A0C0017221A6017E00F4B5B68012B13D10021E2
:100A1C004FF4FA6000F06AFD01214FF47A7000F097
:100A2C0065FD064B05221A6005E000BF04E000BF1F
:100A3C0002E000BF00E000BF00BF80BD000000204E
:100A4C00040000202401002080B582B000AF954B3B
:100A5C001B68162B03D0172B00F08F801DE1924BD7
:100A6C005B68184600F024F98F4B1B69184600F0A0
:100A7C007BF900F0D1FE0120FFF7CCFC0346002BE4
:100A8C001BD0894B5A68884B9B681344632B0ADC38
:100A9C00854B5B680133844A5360834B1B6901337C
:100AAC00814A136109E0804B5B68622B05D17E4B58
:100ABC0001225A607C4B01221A610220FFF7AAFC2A
:100ACC000346002B02D0774B17221A600320FFF746
:100ADC00A1FC0346002B18D0734B5B68012B0EDD79
:100AEC00714B1B69012B0ADD6F4B5B68013B6E4A36
:100AFC0053606D4B1B69013B6B4A136105E06A4BFC
:100B0C0001225A60684B01221A610420FFF782FC13
:100B1C000346002B00F0BE80634B5A68624B9B6807
:100B2C0013440133604AD3605F4BDB685E4A136049
:100B3C0000237B600AE05C4A7B6852F823205B4907
:100B4C007B6841F823207B6801337B607B68052B35
:100B5C00F1D9544B02221A6001214FF47A7000F043
:100B6C00C5FC514B5B6801334FF47A7202FB03F303
:100B7C000021184600F0BAFC8CE000F029FE4A4B2C
:100B8C009B68184600F094F8474B5B69184600F0D8
:100B9C00EBF80120FFF73EFC0346002B1BD0424B29
:100BAC005A68414B9B681344632B0ADC3E4B9B6891
:100BBC0001333D4A93603C4B5B6901333A4A5361C4
:100BCC0009E0394B5B68622B05D1374B01229A60E7
:100BDC00354B01225A610220FFF71CFC0346002B07
:100BEC0002D0304B16221A600320FFF713FC034689
:100BFC00002B18D02C4B9B68012B0EDD2A4B5B690C
:100C0C00012B0ADD284B9B68013B274A9360264B3E
:100C1C005B69013B244A536105E0234B01229A6036
:100C2C00214B01225A610420FFF7F4FB0346002BF1
:100C3C0032D01D4B5A681C4B9B68134401331A4A23
:100C4C00D360194BDB68184A136000233B600AE041
:100C5C00154A3B6852F8232014493B6841F823207D
:100C6C003B6801333B603B68052BF1D90D4B0222ED
:100C7C001A6001214FF47A7000F038FC0A4B5B6863
:100C8C0001334FF47A7202FB03F30021184600F093
:100C9C002DFC01E000BF00E000BF00BF0837BD46DF
:100CAC0080BD00BF00000020040000201C000020BC
:100CBC0080B582B000AF7860274B1B68002B1AD030
:100CCC0000224FF48061254801F0F3F801224FF423
:100CDC000061224801F0EDF87A68214B83FB021386
:100CEC009910D317C91A0B469B000B445B00D11A01
:100CFC00084600F023FA184B1B68002B15D1002274
:100D0C004FF40061154801F0D4F801224FF48061D2
:100D1C00124801F0CEF87B68114A82FB0312921044
:100D2C00DB17D31A184600F009FA0E4B9B68012BFF
:100D3C000DD1094B1B68002B0CBF01230023DBB228
:100D4C001A46054B1A600221282000F0CFFB00BF89
:100D5C000837BD4680BD00BF78000020000C014064
:100D6C00676666662401002080B582B000AF7860AB
:100D7C00274B1B68002B1AD000224FF480612548AA
:100D8C0001F097F801224FF40061224801F091F82C
:100D9C007A68214B83FB02139910D317C91A0B469F
:100DAC009B000B445B00D11A084600F039F8184B35
:100DBC001B68002B15D100224FF40061154801F07F
:100DCC0078F801224FF48061124801F072F87B68C8
:100DDC00114A82FB03129210DB17D31A184600F04B
:100DEC001FF80E4B9B68012B0DD1094B1B68002B78
:100DFC000CBF01230023DBB21A46054B1A600221FB
:100E0C00282000F073FB00BF0837BD4680BD00BF33
:100E1C0078000020000C0140676666662401002003
:100E2C0080B582B000AF78607B68092B00F28081BE
:100E3C0001A252F823F000BF6D0E0008B50E000899
:100E4C00FD0E0008450F00088D0F0008D50F000897
:100E5C001D10000865100008AD100008F510000802
:100E6C0000220221B44801F024F800220421B248E7
:100E7C0001F01FF800220821AF4801F01AF80022F7
:100E8C001021AD4801F015F800222021AA4801F0EC
:100E9C0010F800224021A84801F00BF80122802113
:100EAC00A54801F006F843E100220421A24801F014
:100EBC0000F800220821A04800F0FBFF01220221CB
:100ECC009D4800F0F6FF012210219B4800F0F1FF35
:100EDC0001222021984800F0ECFF01224021964885
:100EEC0000F0E7FF01228021934800F0E2FF1FE1B0
:100EFC0000220221904800F0DCFF002204218E48E1
:100F0C0000F0D7FF002210218B4800F0D2FF002206
:100F1C002021894800F0CDFF00228021864800F076
:100F2C00C8FF01220821844800F0C3FF01224021A0
:100F3C00814800F0BEFFFBE0002202217E4800F059
:100F4C00B8FF002204217C4800F0B3FF00220821E6
:100F5C00794800F0AEFF00221021774800F0A9FF7D
:100F6C0001222021744800F0A4FF01224021724884
:100F7C0000F09FFF002280216F4800F09AFFD7E01D
:100F8C00012202216C4800F094FF002204216A48DF
:100F9C0000F08FFF00220821674800F08AFF012231
:100FAC001021654800F085FF01222021624800F0E5
:100FBC0080FF00224021604800F07BFF002280214E
:100FCC005D4800F076FFB3E0002202215A4800F0A1
:100FDC0070FF01220421584800F06BFF0022082109
:100FEC00554800F066FF00221021534800F061FFC5
:100FFC0001222021504800F05CFF002240214E4885
:10100C0000F057FF002280214B4800F052FF8FE088
:10101C0000220221484800F04CFF012204214648DE
:10102C0000F047FF00220821434800F042FF002255
:10103C001021414800F03DFF002220213E4800F0E5
:10104C0038FF002240213C4800F033FF0022802171
:10105C00394800F02EFF6BE000220221364800F0E8
:10106C0028FF00220421344800F023FF002208212D
:10107C00314800F01EFF012210212F4800F019FF0B
:10108C00012220212C4800F014FF012240212A4883
:10109C0000F00FFF01228021274800F00AFF47E0F3
:1010AC0000220221244800F004FF002204212248DF
:1010BC0000F0FFFE002208211F4800F0FAFE00227B
:1010CC0010211D4800F0F5FE002220211A4800F0E6
:1010DC00F0FE00224021184800F0EBFE0022802197
:1010EC00154800F0E6FE23E000220221124800F031
:1010FC00E0FE00220421104800F0DBFE0022082153
:10110C000D4800F0D6FE002210210B4800F0D1FE55
:10111C0001222021084800F0CCFE00224021064884
:10112C0000F0C7FE00228021034800F0C2FE00BF81
:10113C0000BF0837BD4680BD0008014080B582B0B5
:10114C0000AF78607B68092B00F2C98101A252F8CC
:10115C0023F000BF89110008DF11000835120008C8
:10116C008B120008E1120008371300088D130008D9
:10117C00E3130008391400089514000800224FF4FA
:10118C008071C04800F095FE00224FF40071BD48FC
:10119C0000F08FFE00224FF48061BA4800F089FE07
:1011AC0000224FF40061B74800F083FE00224FF498
:1011BC008051B44800F07DFE00224FF40051B1483C
:1011CC0000F077FE01224FF48041AE4800F071FE32
:1011DC0085E100224FF40071AA4800F06AFE00225B
:1011EC004FF48061A74800F064FE01224FF4807137
:1011FC00A44800F05EFE01224FF40061A14800F00B
:10120C0058FE01224FF480519E4800F052FE0122FC
:10121C004FF400519B4800F04CFE01224FF48041EA
:10122C00984800F046FE5AE100224FF48071954830
:10123C0000F03FFE00224FF40071924800F039FE9E
:10124C0000224FF400618F4800F033FE00224FF46F
:10125C0080518C4800F02DFE00224FF480418948CB
:10126C0000F027FE01224FF48061864800F021FE39
:10127C0001224FF40051834800F01BFE2FE10022A5
:10128C004FF480717F4800F014FE00224FF400717F
:10129C007C4800F00EFE00224FF48061794800F08B
:1012AC0008FE00224FF40061764800F002FE012295
:1012BC004FF48051734800F0FCFD01224FF40051B3
:1012CC00704800F0F6FD00224FF480416D4800F0AC
:1012DC00F0FD04E101224FF480716A4800F0E9FD51
:1012EC0000224FF40071674800F0E3FD00224FF438
:1012FC008061644800F0DDFD01224FF4006161481B
:10130C0000F0D7FD01224FF480515E4800F0D1FD72
:10131C0000224FF400515B4800F0CBFD00224FF44B
:10132C008041584800F0C5FDD9E000224FF480718F
:10133C00544800F0BEFD01224FF40071514800F0FA
:10134C00B8FD00224FF480614E4800F0B2FD00223F
:10135C004FF400614B4800F0ACFD01224FF480517A
:10136C00484800F0A6FD00224FF40051454800F01B
:10137C00A0FD00224FF48041424800F09AFDAEE0FF
:10138C0000224FF480713F4800F093FD01224FF48E
:10139C0000713C4800F08DFD00224FF4806139480B
:1013AC0000F087FD00224FF40061364800F081FD0B
:1013BC0000224FF48051334800F07BFD00224FF4A3
:1013CC000051304800F075FD00224FF480412D484B
:1013DC0000F06FFD83E000224FF48071294800F08B
:1013EC0068FD00224FF40071264800F062FD0022D7
:1013FC004FF48061234800F05CFD01224FF4006142
:10140C00204800F056FD01224FF480511D4800F099
:10141C0050FD01224FF400511A4800F04AFD012200
:10142C004FF48041174800F044FD58E000224FF47F
:10143C008071144800F03DFD00224FF400711148FA
:10144C0000F037FD00224FF480610E4800F031FDB2
:10145C0000224FF400610B4800F02BFD00224FF4EA
:10146C008051084800F025FD00224FF4005105483A
:10147C0000F01FFD00224FF48041024800F019FDDE
:10148C002DE000BF0008014000224FF48071164887
:10149C0000F00FFD00224FF40071134800F009FD1D
:1014AC0000224FF48061104800F003FD00224FF43D
:1014BC0000610D4800F0FDFC01224FF480510A48F8
:1014CC0000F0F7FC00224FF40051074800F0F1FC4B
:1014DC0000224FF48041044800F0EBFC00BF00BF39
:1014EC000837BD4680BD00BF0008014080B483B002
:1014FC0000AF786039607B68094A82FB0312921056
:10150C00DB17D21A07493B6841F82320064A3B688F
:10151C00002142F8231000BF0C37BD4680BC704739
:10152C0067666666FC0000202401002080B483B04E
:10153C0000AF00237B601CE0124A7B6852F823301A
:10154C00002B13DD0F4A7B6852F823305A1E0D49CD
:10155C007B6841F823200B4A7B6852F82330002B20
:10156C0004D1094A7B68012142F823107B680133BE
:10157C007B607B68092BDFDD00BF00BF0C37BD46ED
:10158C0080BC7047FC0000202401002080B485B092
:10159C0000AF154B9B69144A43F001039361124B46
:1015AC009B6903F00103BB60BB680F4BDB690E4A00
:1015BC0043F08053D3610C4BDB6903F080537B60A9
:1015CC007B680A4B5B68FB60FB6823F0E063FB60A5
:1015DC00FB6843F08063FB60044AFB68536000BF08
:1015EC001437BD4680BC704700100240000001401B
:1015FC0080B584B000AF78607B681B68B3F1804F16
:10160C0013D10C4BDB690B4A43F00103D361094B3B
:10161C00DB6903F00103FB60FB68002200211C2046
:10162C0000F07DFA1C2000F096FA00BF1037BD4682
:10163C0080BD00BF0010024080B400AF00BFFDE7CA
:10164C0080B400AF00BFFDE780B400AF00BFFDE782
:10165C0080B400AF00BFFDE780B400AF00BFFDE772
:10166C0080B400AF00BFBD4680BC704780B400AFF3
:10167C0000BFBD4680BC704780B400AF00BFBD4604
:10168C0080BC704780B500AF00F056F900BF80BD3C
:10169C0080B500AF024801F09FF800BF80BD00BFCD
:1016AC00B400002080B400AF00BFBD4680BC7047C2
:1016BC0080B500AF002208210E4800F0FAFB012291
:1016CC0010210C4800F0F5FB00222021094800F005
:1016DC00F0FB01220121074800F0EBFB0022022164
:1016EC00044800F0E6FB00220421024800F0E1FB74
:1016FC0000BF80BD000C014080B500AF0022082166
:10170C000E4800F0D6FB002210210C4800F0D1FB53
:10171C0001222021094800F0CCFB012201210748BD
:10172C0000F0C7FB00220221044800F0C2FB00229B
:10173C000421024800F0BDFB00BF80BD000C01403D
:10174C0080B500AF012208210E4800F0B2FB002248
:10175C0010210C4800F0ADFB00222021094800F0BC
:10176C00A8FB00220121074800F0A3FB0122022163
:10177C00044800F09EFB00220421024800F099FB73
:10178C0000BF80BD000C014080B500AF01220821D4
:10179C000E4800F08EFB002210210C4800F089FB53
:1017AC0000222021094800F084FB00220121074877
:1017BC0000F07FFB00220221044800F07AFB01229A
:1017CC000421024800F075FB00BF80BD000C0140F5
:1017DC0080B500AF002208210E4800F06AFB002201
:1017EC0010210C4800F065FB01222021094800F073
:1017FC0060FB00220121074800F05BFB0022022164
:10180C00044800F056FB01220421024800F051FB71
:10181C0000BF80BD000C014080B500AF0022082144
:10182C000E4800F046FB012210210C4800F041FB51
:10183C0000222021094800F03CFB0022012107482E
:10184C0000F037FB01220221044800F032FB002299
:10185C000421024800F02DFB00BF80BD000C0140AC
:10186C00FFF720FF0B480C490C4A002302E0D45828
:10187C00C4500433C4188C42F9D3094A094C0023D0
:10188C0001E013600432A242FBD301F0EDFAFEF743
:10189C009BFE70470000002088000020002F0008ED
:1018AC008800002050010020FEE7000080B500AF4A
:1018BC00084B1B68074A43F010031360032000F029
:1018CC0023F90F2000F008F8FFF760FE00231846FC
:1018DC0080BD00BF0020024080B582B000AF7860B0
:1018EC00124B1A68124B1B7819464FF47A73B3FBE0
:1018FC00F1F3B2FBF3F3184600F03BF90346002B6F
:10190C0001D001230EE07B680F2B0AD800227968E6
:10191C004FF0FF3000F003F9064A7B681360002398
:10192C0000E0012318460837BD4680BD7C0000202E
:10193C00840000208000002080B400AF054B1B7891
:10194C001A46054B1B681344034A136000BFBD467F
:10195C0080BC7047840000204C01002080B400AF94
:10196C00024B1B681846BD4680BC70474C010020DA
:10197C0080B485B000AF78607B6803F00703FB6030
:10198C000C4BDB68BB60BA684FF6FF031340BB60BF
:10199C00FB681A02BB68134343F0BF6343F4003384
:1019AC00BB60044ABB68D36000BF1437BD4680BC23
:1019BC00704700BF00ED00E080B400AF044BDB6863
:1019CC001B0A03F007031846BD4680BC704700BFD6
:1019DC0000ED00E080B483B000AF0346FB7197F9D3
:1019EC000730002B0BDBFB7903F01F02064997F93C
:1019FC0007305B09012000FA02F241F8232000BFF6
:101A0C000C37BD4680BC704700E100E080B483B069
:101A1C0000AF03463960FB7197F90730002B0ADBE6
:101A2C003B68DAB20C4997F907301201D2B20B4479
:101A3C0083F800230AE03B68DAB20849FB7903F02B
:101A4C000F03043B1201D2B20B441A7600BF0C37C1
:101A5C00BD4680BC704700BF00E100E000ED00E037
:101A6C0080B489B000AFF860B9607A60FB6803F0AD
:101A7C000703FB61FB69C3F10703042B28BF042395
:101A8C00BB61FB690433062B02D9FB69033B00E005
:101A9C0000237B614FF0FF32BB6902FA03F3DA4398
:101AAC00BB681A407B699A404FF0FF317B6901FAA1
:101ABC0003F3D9437B680B40134318462437BD46C8
:101ACC0080BC704780B582B000AF78607B68013B0A
:101ADC00B3F1807F01D301230FE00A4A7B68013BFD
:101AEC0053600F214FF0FF30FFF790FF054B0022A2
:101AFC009A60044B07221A60002318460837BD462B
:101B0C0080BD00BF10E000E080B582B000AF78600F
:101B1C007868FFF72DFF00BF0837BD4680BD80B544
:101B2C0086B000AF0346B9607A60FB7300237B611B
:101B3C00FFF742FF78617A68B9687869FFF790FF20
:101B4C00024697F90F3011461846FFF75FFF00BFAA
:101B5C001837BD4680BD80B582B000AF0346FB711F
:101B6C0097F907301846FFF735FF00BF0837BD4619
:101B7C0080BD80B582B000AF78607868FFF7A2FFB7
:101B8C00034618460837BD4680BD000080B48BB0B4
:101B9C0000AF7860396000237B6200233B6261E117
:101BAC0001227B6A02FA03F3FB613B681B68FA694A
:101BBC001340BB61BA69FB699A4240F050813B68A3
:101BCC005B68974A93425ED0954A934275D8954A82
:101BDC00934258D0934A93426FD8934A934252D02F
:101BEC00914A934269D8914A93424CD08F4A93427E
:101BFC0063D88F4A934246D08D4A93425DD8122BBC
:101C0C002AD8122B59D801A252F823F0931C0008A1
:101C1C006D1C00087F1C0008C11C0008C71C0008B4
:101C2C00C71C0008C71C0008C71C0008C71C0008FC
:101C3C00C71C0008C71C0008C71C0008C71C0008EC
:101C4C00C71C0008C71C0008C71C0008C71C0008DC
:101C5C00751C0008891C0008764A934213D02CE0AE
:101C6C003B68DB683B6229E03B68DB6804333B6222
:101C7C0024E03B68DB6808333B621FE03B68DB68B1
:101C8C000C333B621AE03B689B68002B02D10423A7
:101C9C003B6213E03B689B68012B05D108233B6238
:101CAC007B68FA691A6109E008233B627B68FA6970
:101CBC005A6103E000233B6200E000BFBB69FF2BCD
:101CCC0001D87B6801E07B6804337B61BB69FF2B27
:101CDC0002D87B6A9B0002E07B6A083B9B003B615D
:101CEC007B691A680F213B6901FA03F3DB431A4045
:101CFC00396A3B6901FA03F31A437B691A603B6842
:101D0C005B6803F08053002B00F0A9804A4B9B6961
:101D1C00494A43F001039361474B9B6903F001036C
:101D2C00BB60BB68454A7B6A9B08023352F8233080
:101D3C00FB607B6A03F003039B000F2202FA03F3A0
:101D4C00DB43FA681340FB607B683D4A93420DD03D
:101D5C007B683C4A934207D07B683B4A934201D153
:101D6C00022304E0032302E0012300E000237A6A4B
:101D7C0002F0030292009340FA681343FB602F4970
:101D8C007B6A9B080233FA6841F823203B685B6846
:101D9C0003F48013002B06D02C4B9A682B49BB699B
:101DAC0013438B6006E0294B9A68BB69DB432749D8
:101DBC0013408B603B685B6803F40013002B06D068
:101DCC00224BDA682149BB691343CB6006E01F4BF9
:101DDC00DA68BB69DB431D491340CB603B685B6829
:101DEC0003F40033002B06D0184B5A681749BB6913
:101DFC0013434B6006E0154B5A68BB69DB43134930
:101E0C0013404B603B685B6803F48033002B1FD09E
:101E1C000E4B1A680D49BB6913430B601FE000BFE2
:101E2C0000003210000031100000221000002110C0
:101E3C0000001210000011100010024000000140C0
:101E4C0000080140000C014000100140000401405A
:101E5C000B4B1A68BB69DB43094913400B607B6A67
:101E6C0001337B623B681A687B6A22FA03F3002B0E
:101E7C007FF496AE00BF00BF2C37BD4680BC7047C8
:101E8C000004014080B485B000AF78600B467B80C5
:101E9C007B689A687B881340002B02D00123FB736C
:101EAC0001E00023FB73FB7B18461437BD4680BC56
:101EBC00704780B483B000AF78600B467B801346CC
:101ECC007B707B78002B03D07A887B681A6103E0E7
:101EDC007B881A047B681A6100BF0C37BD4680BC36
:101EEC007047000080B586B000AF78607B68002B2F
:101EFC0001D1012372E27B681B6803F00103002B04
:101F0C0000F08780924B5B6803F00C03042B0CD021
:101F1C008F4B5B6803F00C03082B12D18C4B5B6866
:101F2C0003F48033B3F5803F0BD1894B1B6803F46A
:101F3C000033002B6CD07B685B68002B68D10123CD
:101F4C004CE27B685B68B3F5803F06D1804B1B6825
:101F5C007F4A43F4803313602EE07B685B68002B70
:101F6C000CD17B4B1B687A4A23F480331360784B7B
:101F7C001B68774A23F4802313601DE07B685B6841
:101F8C00B3F5A02F0CD1724B1B68714A43F480231C
:101F9C0013606F4B1B686E4A43F4803313600BE085
:101FAC006B4B1B686A4A23F480331360684B1B68C5
:101FBC00674A23F4802313607B685B68002B13D083
:101FCC00FFF7CCFC386108E0FFF7C8FC02463B6920
:101FDC00D31A642B01D9032300E25D4B1B6803F475
:101FEC000033002BF0D014E0FFF7B8FC386108E0A8
:101FFC00FFF7B4FC02463B69D31A642B01D90323C7
:10200C00ECE1534B1B6803F40033002BF0D100E0E0
:10201C0000BF7B681B6803F00203002B63D04C4BA2
:10202C005B6803F00C03002B0BD0494B5B6803F08F
:10203C000C03082B1CD1464B5B6803F48033002B3C
:10204C0016D1434B1B6803F00203002B05D07B68B1
:10205C001B69012B01D00123C0E13D4B1B6823F010
:10206C00F8027B685B69DB00394913430B603AE08B
:10207C007B681B69002B20D0364B01221A60FFF7BE
:10208C006DFC386108E0FFF769FC02463B69D31A26
:10209C00022B01D90323A1E12D4B1B6803F0020392
:1020AC00002BF0D02A4B1B6823F0F8027B685B698D
:1020BC00DB00274913430B6015E0264B00221A6006
:1020CC00FFF74CFC386108E0FFF748FC02463B691F
:1020DC00D31A022B01D9032380E11D4B1B6803F09B
:1020EC000203002BF0D17B681B6803F00803002B64
:1020FC003AD07B689B69002B19D0174B01221A60D0
:10210C00FFF72CFC386108E0FFF728FC02463B691E
:10211C00D31A022B01D9032360E10D4B5B6A03F048
:10212C000203002BF0D0012000F09CFA1CE00A4BBB
:10213C0000221A60FFF712FC38610FE0FFF70EFC6B
:10214C0002463B69D31A022B08D9032346E100BF90
:10215C00001002400000424280044242924B5B6AF3
:10216C0003F00203002BE9D17B681B6803F0040326
:10217C00002B00F0A6800023FB758B4BDB6903F072
:10218C008053002B0DD1884BDB69874A43F0805379
:10219C00D361854BDB6903F08053BB60BB680123C3
:1021AC00FB75824B1B6803F48073002B18D17F4B9B
:1021BC001B687E4A43F480731360FFF7CFFB3861D2
:1021CC0008E0FFF7CBFB02463B69D31A642B01D91D
:1021DC00032303E1754B1B6803F48073002BF0D0D1
:1021EC007B68DB68012B06D16F4B1B6A6E4A43F090
:1021FC00010313622DE07B68DB68002B0CD16A4B6A
:10220C001B6A694A23F001031362674B1B6A664A17
:10221C0023F0040313621CE07B68DB68052B0CD1F4
:10222C00614B1B6A604A43F0040313625E4B1B6AEA
:10223C005D4A43F0010313620BE05B4B1B6A5A4A85
:10224C0023F001031362584B1B6A574A23F0040313
:10225C0013627B68DB68002B15D0FFF77FFB3861BE
:10226C000AE0FFF77BFB02463B69D31A41F2883246
:10227C00934201D90323B1E04B4B1B6A03F00203D9
:10228C00002BEED014E0FFF769FB38610AE0FFF792
:10229C0065FB02463B69D31A41F28832934201D95D
:1022AC0003239BE0404B1B6A03F00203002BEED18F
:1022BC00FB7D012B05D13C4BDB693B4A23F0805362
:1022CC00D3617B68DB69002B00F08780364B5B6841
:1022DC0003F00C03082B61D07B68DB69022B46D121
:1022EC00334B00221A60FFF739FB386108E0FFF727
:1022FC0035FB02463B69D31A022B01D903236DE04F
:10230C00294B1B6803F00073002BF0D17B681B6A10
:10231C00B3F5803F08D1244B5B6823F400327B6813
:10232C009B68214913434B601F4B5B6823F4741269
:10233C007B68196A7B685B6A0B431B4913434B60D0
:10234C001B4B01221A60FFF709FB386108E0FFF70D
:10235C0005FB02463B69D31A022B01D903233DE04E
:10236C00114B1B6803F00073002BF0D035E0104BC1
:10237C0000221A60FFF7F2FA386108E0FFF7EEFA74
:10238C0002463B69D31A022B01D9032326E0064BE4
:10239C001B6803F00073002BF0D11EE07B68DB6937
:1023AC00012B07D1012319E00010024000700040FE
:1023BC00600042420B4B5B68FB60FB6803F48032AD
:1023CC007B681B6A9A4206D1FB6803F470127B6827
:1023DC005B6A9A4201D0012300E0002318461837AB
:1023EC00BD4680BD0010024080B584B000AF78605F
:1023FC0039607B68002B01D10123D0E06A4B1B684C
:10240C0003F007033A689A4210D9674B1B6823F014
:10241C00070265493B6813430B60634B1B6803F071
:10242C0007033A689A4201D00123B8E07B681B6825
:10243C0003F00203002B20D07B681B6803F004031D
:10244C00002B05D0594B5B68584A43F4E06353604A
:10245C007B681B6803F00803002B05D0534B5B68AB
:10246C00524A43F460535360504B5B6823F0F002C4
:10247C007B689B684D4913434B607B681B6803F07A
:10248C000103002B40D07B685B68012B07D1474BC5
:10249C001B6803F40033002B15D101237FE07B680C
:1024AC005B68022B07D1414B1B6803F00073002BB8
:1024BC0009D1012373E03D4B1B6803F00203002B91
:1024CC0001D101236BE0394B5B6823F003027B687D
:1024DC005B68364913434B60FFF740FAF8600AE03B
:1024EC00FFF73CFA0246FB68D31A41F2883293425A
:1024FC0001D9032353E02D4B5B6803F00C027B687E
:10250C005B689B009A42EBD1274B1B6803F00703D7
:10251C003A689A4210D2244B1B6823F007022249D6
:10252C003B6813430B60204B1B6803F007033A68AE
:10253C009A4201D0012332E07B681B6803F004034C
:10254C00002B08D0194B5B6823F4E0627B68DB68D6
:10255C00164913434B607B681B6803F00803002B80
:10256C0009D0124B5B6823F460527B681B69DB005B
:10257C000E4913434B6000F021F802460B4B5B688D
:10258C001B0903F00F030A49CB5C22FA03F3094A37
:10259C001360094B1B681846FFF79EF90023184679
:1025AC001037BD4680BD00BF002002400010024025
:1025BC00D42E00087C0000208000002080B487B05E
:1025CC0000AF0023FB600023BB6000237B61002372
:1025DC007B6000233B611E4B5B68FB60FB6803F078
:1025EC000C03042B02D0082B03D027E0194B3B61C2
:1025FC0027E0FB689B0C03F00F03174AD35C7B604E
:10260C00FB6803F48033002B10D0114B5B685B0C20
:10261C0003F00103114AD35CBB607B680D4A03FBDA
:10262C0002F2BB68B2FBF3F37B6104E07B680C4AFB
:10263C0002FB03F37B617B693B6102E0054B3B6171
:10264C0000BF3B6918461C37BD4680BC704700BFB5
:10265C000010024000127A00E42E0008F42E00084C
:10266C0000093D0080B485B000AF78600A4B1B6850
:10267C000A4AA2FB03235B0A7A6802FB03F3FB60A2
:10268C0000BFFB685A1EFA60002BF9D100BF00BFD7
:10269C001437BD4680BC70477C000020D34D6210BF
:1026AC0080B582B000AF78607B68002B01D101232C
:1026BC0041E07B6893F83D30DBB2002B06D17B68A0
:1026CC00002283F83C207868FEF792FF7B68022298
:1026DC0083F83D207B681A687B68043319461046E2
:1026EC0000F056FA7B68012283F846207B680122B1
:1026FC0083F83E207B68012283F83F207B6801220F
:10270C0083F840207B68012283F841207B680122FA
:10271C0083F842207B68012283F843207B680122E6
:10272C0083F844207B68012283F845207B680122D2
:10273C0083F83D20002318460837BD4680BD0000B5
:10274C0080B485B000AF78607B6893F83D30DBB225
:10275C00012B01D0012335E07B68022283F83D2058
:10276C007B681B68DA687B681B6842F00102DA60E0
:10277C007B681B68164A934209D07B681B68B3F1CF
:10278C00804F04D07B681B68124A934211D17B683E
:10279C001B689B6803F00703FB60FB68062B10D0DB
:1027AC007B681B681A687B681B6842F001021A6020
:1027BC0007E07B681B681A687B681B6842F00102A3
:1027CC001A60002318461437BD4680BC704700BF02
:1027DC00002C01400004004080B584B000AF78604C
:1027EC007B681B68DB68FB607B681B681B69BB60D4
:1027FC00BB6803F00203002B20D0FB6803F002033C
:10280C00002B1BD07B681B686FF002021A617B687F
:10281C0001221A777B681B689B6903F00303002B6A
:10282C0003D0786800F098F905E0786800F08BF92F
:10283C00786800F09AF97B6800221A77BB6803F07D
:10284C000403002B20D0FB6803F00403002B1BD0E7
:10285C007B681B686FF004021A617B6802221A778E
:10286C007B681B689B6903F44073002B03D078686A
:10287C0000F072F905E0786800F065F9786800F00E
:10288C0074F97B6800221A77BB6803F00803002BED
:10289C0020D0FB6803F00803002B1BD07B681B685F
:1028AC006FF008021A617B6804221A777B681B6838
:1028BC00DB6903F00303002B03D0786800F04CF9BC
:1028CC0005E0786800F03FF9786800F04EF97B6815
:1028DC0000221A77BB6803F01003002B20D0FB6892
:1028EC0003F01003002B1BD07B681B686FF01002E9
:1028FC001A617B6808221A777B681B68DB6903F412
:10290C004073002B03D0786800F026F905E0786856
:10291C0000F019F9786800F028F97B6800221A7722
:10292C00BB6803F00103002B0CD0FB6803F0010320
:10293C00002B07D07B681B686FF001021A61786866
:10294C00FDF764FFBB6803F08003002B0CD0FB6821
:10295C0003F08003002B07D07B681B686FF08002AC
:10296C001A61786800F06FFABB6803F04003002B23
:10297C000CD0FB6803F04003002B07D07B681B686E
:10298C006FF040021A61786800F0F8F8BB6803F049
:10299C002003002B0CD0FB6803F02003002B07D086
:1029AC007B681B686FF020021A61786800F042FAAD
:1029BC0000BF1037BD4680BD80B584B000AF7860D5
:1029CC0039600023FB737B6893F83C30012B01D1F9
:1029DC000223B4E07B68012283F83C207B6802224E
:1029EC0083F83D207B681B689B68BB60BB6823F049
:1029FC007703BB60BB6823F47F43BB607B681B68B9
:102A0C00BA689A603B681B68B3F5005F3ED0B3F5BB
:102A1C00005F00F28780B3F5805F00F08680B3F52D
:102A2C00805F7FD8702B1AD0702B7BD8602B50D046
:102A3C00602B77D8502B3CD0502B73D8402B58D0D0
:102A4C00402B6FD8302B64D0302B6BD8202B60D020
:102A5C00202B67D8002B5CD0102B5AD062E07B68FF
:102A6C0018683B6899683B685A683B68DB6800F0FB
:102A7C006AF97B681B689B68BB60BB6843F0770393
:102A8C00BB607B681B68BA689A604FE07B6818680B
:102A9C003B6899683B685A683B68DB6800F053F9FF
:102AAC007B681B689A687B681B6842F480429A605A
:102ABC003CE07B6818683B6859683B68DB681A46E1
:102ACC0000F0CAF87B681B685021184600F021F909
:102ADC002CE07B6818683B6859683B68DB681A46D1
:102AEC0000F0E8F87B681B686021184600F011F9CB
:102AFC001CE07B6818683B6859683B68DB681A46C1
:102B0C0000F0AAF87B681B684021184600F001F918
:102B1C000CE07B681A683B681B681946104600F08D
:102B2C00F8F803E00123FB7300E000BF7B6801228F
:102B3C0083F83D207B68002283F83C20FB7B184601
:102B4C001037BD4680BD80B483B000AF786000BF45
:102B5C000C37BD4680BC704780B483B000AF786042
:102B6C0000BF0C37BD4680BC704780B483B000AF4B
:102B7C00786000BF0C37BD4680BC704780B483B012
:102B8C0000AF786000BF0C37BD4680BC70470000BA
:102B9C0080B485B000AF786039607B681B68FB60DF
:102BAC007B682B4A934207D07B68B3F1804F03D0EC
:102BBC007B68284A934208D1FB6823F07003FB60C2
:102BCC003B685B68FA681343FB607B68204A93425E
:102BDC0007D07B68B3F1804F03D07B681D4A9342CA
:102BEC0008D1FB6823F44073FB603B68DB68FA6830
:102BFC001343FB60FB6823F080023B685B69134363
:102C0C00FB607B68FA681A603B689A687B68DA62DA
:102C1C003B681A687B689A627B680D4A934203D1C1
:102C2C003B681A697B681A637B6801225A617B686E
:102C3C001B6903F00103002B05D07B681B6923F093
:102C4C0001027B681A6100BF1437BD4680BC704717
:102C5C00002C01400004004080B487B000AFF86045
:102C6C00B9607A60FB681B6A7B61FB681B6A23F0A6
:102C7C000102FB681A62FB689B693B613B6923F0AC
:102C8C00F0033B617B681B013A6913433B617B6931
:102C9C0023F00A037B617A69BB6813437B61FB6891
:102CAC003A699A61FB687A691A6200BF1C37BD46A3
:102CBC0080BC704780B487B000AFF860B9607A60B0
:102CCC00FB681B6A7B61FB681B6A23F01002FB68C4
:102CDC001A62FB689B693B613B6923F470433B615F
:102CEC007B681B033A6913433B617B6923F0A003A8
:102CFC007B61BB681B017A6913437B61FB683A6992
:102D0C009A61FB687A691A6200BF1C37BD4680BCA9
:102D1C00704780B485B000AF786039607B689B6881
:102D2C00FB60FB6823F07003FB603A68FB6813439D
:102D3C0043F00703FB607B68FA689A6000BF1437A6
:102D4C00BD4680BC704780B487B000AFF860B960F6
:102D5C007A603B60FB689B687B617B6923F47F43F3
:102D6C007B613B681A027B681A43BB6813437A6920
:102D7C0013437B61FB687A699A6000BF1C37BD46C0
:102D8C0080BC704780B485B000AF786039607B68D8
:102D9C0093F83C30012B01D1022341E07B680122E6
:102DAC0083F83C207B68022283F83D207B681B68FB
:102DBC005B68FB607B681B689B68BB60FB6823F0EF
:102DCC007003FB603B681B68FA681343FB607B680D
:102DDC001B68FA685A607B681B68144A934209D0D6
:102DEC007B681B68B3F1804F04D07B681B68104A6A
:102DFC0093420CD1BB6823F08003BB603B685B68DB
:102E0C00BA681343BB607B681B68BA689A607B68BE
:102E1C00012283F83D207B68002283F83C200023AC
:102E2C0018461437BD4680BC704700BF002C0140CB
:102E3C000004004080B483B000AF786000BF0C3752
:102E4C00BD4680BC704780B483B000AF786000BFD3
:102E5C000C37BD4680BC704703460244934200D1F8
:102E6C00704703F8011BF9E770B500260C4D0D4CAB
:102E7C00641BA410A64209D100F01AF800260A4DD2
:102E8C000A4C641BA410A64205D170BD55F8043B36
:102E9C0098470136EEE755F8043B98470136F2E7C0
:102EAC00F82E0008F82E0008F82E0008FC2E00085A
:102EBC00F8B500BFF8BC08BC9E467047F8B500BF1B
:082ECC00F8BC08BC9E467047EB
:102ED40000000000000000000102030406070809C6
:102EE40002030405060708090A0B0C0D0E0F101047
:042EF40001020000D7
:042EF800310100089C
:042EFC000D010008BC
:102F000001000000040000000200000001000000B9
:102F100004000000020000000100000004000000A6
:102F20000200000001000000040000000200000098
:102F3000010000000100000001000000010000008D
:102F4000000000000100000001000000010000007E
:102F5000000000000100000001000000010000006E
:102F6000000000000100000001000000010000005E
:102F700000000000C80000000100000000127A00FC
:082F8000100000000100000038
:040000050800186D6A
:00000001FF
