:020000040800F2
:10000000002800201114000879120008811200084D
:1000100089120008911200089912000800000000DF
:10002000000000000000000000000000A112000815
:10003000AD12000800000000B9120008C512000847
:1000400059140008591400085914000859140008DC
:1000500059140008591400085914000859140008CC
:1000600059140008591400085914000859140008BC
:1000700059140008591400085914000859140008AC
:10008000591400085914000859140008591400089C
:10009000591400085914000859140008591400088C
:1000A000591400085914000859140008591400087C
:1000B000D11200085914000800000000591400086B
:1000C0005914000800000000000000005914000846
:1000D0000000000059140008591400080000000036
:1000E00059140008591400085914000800000000B1
:1000F0000000000000000000000000000000000000
:0C01000000000000000000005FF808F1A3
:10010C0010B5054C237833B9044B13B10448AFF345
:10011C0000800123237010BD5C0000200000000053
:10012C00602A000808B5034B1BB103490348AFF321
:10013C00008008BD0000000060000020602A00085C
:10014C0080B500AF994B1B68013B042B00F2268154
:10015C0001A252F823F000BF7901000891010008B8
:10016C0021020008A5020008270300088F4B022279
:10017C001A60002140F6B83000F0D2FF8C4B0122FF
:10018C005A6024E101F0AEF8894B5B68012B1CD15D
:10019C00874B1B68002B18D1864B1B68184600F048
:1001AC0059FC854B1B68184600F0E2FD814B1B681F
:1001BC00013B804A1360804B1B68013B7E4A1360F5
:1001CC0001214FF47A7000F0ABFF794B1B68012BC7
:1001DC000AD1764B03221A60754B01225A6000211A
:1001EC004FF4FA6000F09CFF012000F029F903465F
:1001FC00012B40F0D5806D4B0C221A60022000F0D0
:10020C0029FC042000F0B4FD012142F2107000F032
:10021C0087FFC5E001F08AF8654B5B68012B1CD1A8
:10022C00634B1B68002B18D1644B1B68184600F0FD
:10023C0011FC614B1B68184600F09AFD5F4B1B6864
:10024C00013B5E4A13605C4B1B68013B5A4A1360CE
:10025C0001214FF47A7000F063FF554B1B68012BA2
:10026C000AD1524B04221A60514B01225A600021D0
:10027C0040F6B83000F054FF012000F0E1F80346DE
:10028C00012B40F08F80494B0D221A60012142F264
:10029C00107000F045FF85E001F06CF8444B5B6892
:1002AC00012B1CD1424B1B68002B18D1444B1B68F3
:1002BC00184600F0CFFB434B1B68184600F058FD66
:1002CC003F4B1B68013B3E4A13603E4B1B68013B96
:1002DC003C4A136001214FF47A7000F021FF344B3B
:1002EC001B68012B0AD1314B05221A60304B0122BD
:1002FC005A6000214FF4FA6000F012FF012000F068
:10030C009FF80346012B4FD1284B0E221A60012176
:10031C0042F2107000F004FF46E001F04FF8244B5D
:10032C005B68012B1CD1224B1B68002B18D1244B72
:10033C001B68184600F08EFB234B1B68184600F018
:10034C0017FD1F4B1B68013B1D4A13601E4B1B689E
:10035C00013B1D4A136001214FF47A7000F0E0FE5E
:10036C00134B1B68012B0AD1104B02221A60104B45
:10037C0001225A60002140F6B83000F0D1FE012075
:10038C0000F05EF80346012B20D1084B0F221A60B7
:10039C00012142F2107000F0C3FE17E000BF16E01E
:1003AC0000BF14E000BF12E000BF10E0000000200E
:1003BC00F400002008000020100000200C00002099
:1003CC0004000020140000201800002000BF164B71
:1003DC001B68002B25DA154B1B68002B21DA144BFC
:1003EC001B68002B1DDA134B1B68002B19DA124B00
:1003FC001B68002B15DA114B1B68002B11DA0A4B0A
:10040C0004221A60094B02221A60094B01221A605D
:10041C00084B04221A60084B02221A60074B012277
:10042C001A6000BF80BD00BF04000020080000203F
:10043C000C000020100000201400002018000020E8
:10044C0080B483B000AF78607B68013B094A52F8F6
:10045C002330012B07D17B68013B064A002142F86F
:10046C002310012300E0002318460C37BD4680BC46
:10047C00704700BF7800002080B483B000AF786074
:10048C00044A7B68012142F8231000BF0C37BD469B
:10049C0080BC70477800002080B582B000AF00238C
:1004AC007B6085E0474A7B6852F8232046497B688D
:1004BC0041F82320454A7B6852F8232041497B6848
:1004CC0041F823207B68022B1DD07B68022B24DC97
:1004DC007B68002B03D07B68012B0AD01DE04FF406
:1004EC0000513B4801F0A0FA03461A46374B1A60FC
:1004FC0013E04FF48041374801F096FA03461A4650
:10050C00324B5A6009E04FF40041324801F08CFA4A
:10051C0003461A462D4B9A6000BF2B4A7B6852F853
:10052C00232028497B6851F823309A423DD1254A33
:10053C007B6852F8232025497B6851F823309A4276
:10054C0033D1254A7B6852F8232020497B6851F827
:10055C0023309A4214D01D4A7B6852F823201E493E
:10056C007B6841F82320194A7B6852F82330002B12
:10057C001BD17868FFF780FF184BC8221A6014E073
:10058C00164B1B68013B154A1360144B1B68002B60
:10059C000BD10E4A7B6852F82330002B02D17868BD
:1005AC00FFF76AFF0D4BC8221A607B6801337B6032
:1005BC007B68022B7FF776AF00BF00BF0837BD46C4
:1005CC0080BD00BF280000201C000020340000204B
:1005DC0000100140000C0140400000204C000020A5
:1005EC0080B500AF00F034FF00F010F800F096F882
:1005FC0000F048F8044801F075FEFFF7A1FD00F08B
:10060C001BF900BFF9E700BF8400002080B590B053
:10061C0000AF07F1180328220021184602F0EEF96A
:10062C003B1D00221A605A609A60DA601A6102233C
:10063C00BB610123BB621023FB6200237B6307F1C8
:10064C001803184601F020FA0346002B01D000F0E5
:10065C00EDF80F237B600023BB600023FB600023BD
:10066C003B6100237B613B1D0021184601F08EFC91
:10067C000346002B01D000F0D9F800BF4037BD462F
:10068C0080BD000080B586B000AF07F108030022E2
:10069C001A605A609A60DA603B4600221A605A600F
:1006AC001D4B4FF080421A601B4B41F63F725A6053
:1006BC00194B00229A60184B0922DA60164B002263
:1006CC001A61154B00229A61134801F0BBFD0346D9
:1006DC00002B01D000F0AAF84FF48053BB6007F157
:1006EC00080319460C4801F039FF0346002B01D0D2
:1006FC0000F09CF800233B6000237B603B461946CE
:10070C00054802F011F90346002B01D000F08EF8D9
:10071C0000BF1837BD4680BD8400002080B588B06E
:10072C0000AF07F1100300221A605A609A60DA6079
:10073C00344B9B69334A43F010039361314B9B69F3
:10074C0003F01003FB60FB682E4B9B692D4A43F0B2
:10075C00040393612B4B9B6903F00403BB60BB68E0
:10076C00284B9B69274A43F008039361254B9B69EF
:10077C0003F008037B607B68002247F6FE71224879
:10078C0001F069F900223F21204801F064F94FF48F
:10079C0000533B6100237B610123BB6107F1100314
:1007AC0019461B4800F0C4FF47F6FE733B6101235A
:1007BC007B610023BB610223FB6107F11003194627
:1007CC00114800F0B5FF3F233B6101237B610023FF
:1007DC00BB610223FB6107F1100319460B4800F0C3
:1007EC00A7FF4FF440433B6100237B610123BB61B6
:1007FC0007F110031946054800F09AFF00BF203797
:10080C00BD4680BD0010024000080140000C0140B4
:10081C000010014080B582B000AF7860FFF73CFE5D
:10082C0000F09EFC00BF0837BD4680BD80B400AF11
:10083C0072B600BF00BFFDE780B500AF7D4B1B68F3
:10084C000C3B032B00F2F38001A252F823F000BF03
:10085C006D080008E108000853090008C5090008E4
:10086C0000F040FD744B04221A60744B02221A6093
:10087C00714B1B68184600F07BFA704B1B681846CE
:10088C0000F0E8F80120FFF7DBFD0346002B08D051
:10089C00012141F2707000F043FC664B0D221A608E
:1008AC00BEE0674B5B68002B05D10220FFF7C8FD4B
:1008BC000346002B0DD1624B5B68012B40F0B080DE
:1008CC00002140F6B83000F02BFC5A4B02221A6083
:1008DC00A6E0A5E000F02AFD5A4B01221A60564B07
:1008EC0001221A60574B1B68184600F0B3F8524BA4
:1008FC001B68184600F03CFA0120FFF7A1FD0346E7
:10090C00002B08D04B4B0E221A60012141F2707063
:10091C0000F006FC86E04A4B5B68002B05D10220F8
:10092C00FFF78EFD0346002B0CD1454B5B68012B6A
:10093C0078D100214FF4FA6000F0F2FB3D4B02221B
:10094C001A606FE06EE000F015FD3F4B04221A6058
:10095C003E4B02221A603C4B1B68184600F07AF89A
:10096C003A4B1B68184600F003FA0120FFF768FDAC
:10097C000346002B08D02F4B0F221A60012141F2A5
:10098C00707000F0CDFB4FE02D4B5B68002B05D158
:10099C000220FFF755FD0346002B0CD1284B5B685A
:1009AC00012B41D1002140F6B83000F0B9FB214BAE
:1009BC0004221A6038E037E000F000FD224B0122DF
:1009CC001A60234B01221A601F4B1B68184600F05B
:1009DC0041F81F4B1B68184600F0CAF90120FFF7BD
:1009EC002FFD0346002B03D0124B0C221A601DE086
:1009FC00134B5B68002B05D10220FFF721FD03464A
:100A0C00002B0CD10E4B5B68012B0FD100214FF446
:100A1C00FA6000F085FB074B05221A6006E005E042
:100A2C0000BF04E000BF02E000BF00E000BF00BF59
:100A3C0080BD00BF00000020100000200800002036
:100A4C00F40000200C000020040000201400002002
:100A5C001800002080B582B000AF78607B68092B4D
:100A6C0000F2808101A252F823F000BFA10A000815
:100A7C00E90A0008310B0008790B0008C10B0008CB
:100A8C00090C0008510C0008990C0008E10C000836
:100A9C00290D000800220221B44800F0DCFF0022DE
:100AAC000421B24800F0D7FF00220821AF4800F023
:100ABC00D2FF00221021AD4800F0CDFF00222021F2
:100ACC00AA4800F0C8FF00224021A84800F0C3FF4C
:100ADC0001228021A54800F0BEFF43E10022042141
:100AEC00A24800F0B8FF00220821A04800F0B3FF94
:100AFC00012202219D4800F0AEFF012210219B48EB
:100B0C0000F0A9FF01222021984800F0A4FF012247
:100B1C004021964800F09FFF01228021934800F06D
:100B2C009AFF1FE100220221904800F094FF00225E
:100B3C0004218E4800F08FFF002210218B4800F01A
:100B4C008AFF00222021894800F085FF00228021A5
:100B5C00864800F080FF01220821844800F07BFFCA
:100B6C0001224021814800F076FFFBE000220221A7
:100B7C007E4800F070FF002204217C4800F06BFFDF
:100B8C0000220821794800F066FF002210217748E6
:100B9C0000F061FF01222021744800F05CFF01226B
:100BAC004021724800F057FF002280216F4800F06E
:100BBC0052FFD7E0012202216C4800F04CFF0022CA
:100BCC0004216A4800F047FF00220821674800F022
:100BDC0042FF01221021654800F03DFF0122202137
:100BEC00624800F038FF00224021604800F033FFDB
:100BFC00002280215D4800F02EFFB3E0002202218C
:100C0C005A4800F028FF01220421584800F023FF25
:100C1C0000220821554800F01EFF002210215348E5
:100C2C0000F019FF01222021504800F014FF00228F
:100C3C0040214E4800F00FFF002280214B4800F06D
:100C4C000AFF8FE000220221484800F004FF012235
:100C5C000421464800F0FFFE00220821434800F022
:100C6C00FAFE00221021414800F0F5FE002220215E
:100C7C003E4800F0F0FE002240213C4800F0EBFE24
:100C8C0000228021394800F0E6FE6BE000220221B0
:100C9C00364800F0E0FE00220421344800F0DBFE70
:100CAC0000220821314800F0D6FE012210212F48E5
:100CBC0000F0D1FE012220212C4800F0CCFE0122B4
:100CCC0040212A4800F0C7FE01228021274800F06D
:100CDC00C2FE47E000220221244800F0BCFE0022A4
:100CEC000421224800F0B7FE002208211F4800F022
:100CFC00B2FE002210211D4800F0ADFE0022202182
:100D0C001A4800F0A8FE00224021184800F0A3FE6B
:100D1C0000228021154800F09EFE23E000220221D3
:100D2C00124800F098FE00220421104800F093FEB7
:100D3C00002208210D4800F08EFE002210210B48E5
:100D4C0000F089FE01222021084800F084FE0022D8
:100D5C004021064800F07FFE00228021034800F06D
:100D6C007AFE00BF00BF0837BD4680BD00080140B9
:100D7C0080B582B000AF78607B68092B00F2C98126
:100D8C0001A252F823F000BFBD0D0008130E00089D
:100D9C00690E0008BF0E0008150F00086B0F000845
:100DAC00C10F0008171000086D100008C9100008CA
:100DBC0000224FF48071C04800F04DFE00224FF429
:100DCC000071BD4800F047FE00224FF48061BA4824
:100DDC0000F041FE00224FF40061B74800F03BFEEA
:100DEC0000224FF48051B44800F035FE00224FF43D
:100DFC000051B14800F02FFE01224FF48041AE4863
:100E0C0000F029FE85E100224FF40071AA4800F0A1
:100E1C0022FE00224FF48061A74800F01CFE012244
:100E2C004FF48071A44800F016FE01224FF40061CB
:100E3C00A14800F010FE01224FF480519E4800F0B2
:100E4C000AFE01224FF400519B4800F004FE0122DF
:100E5C004FF48041984800F0FEFD5AE100224FF417
:100E6C008071954800F0F7FD00224FF40071924814
:100E7C0000F0F1FD00224FF400618F4800F0EBFD13
:100E8C0000224FF480518C4800F0E5FD00224FF415
:100E9C008041894800F0DFFD01224FF480618648D3
:100EAC0000F0D9FD01224FF40051834800F0D3FD2E
:100EBC002FE100224FF480717F4800F0CCFD00221E
:100ECC004FF400717C4800F0C6FD00224FF48061A5
:100EDC00794800F0C0FD00224FF40061764800F024
:100EEC00BAFD01224FF48051734800F0B4FD012289
:100EFC004FF40051704800F0AEFD00224FF48041D9
:100F0C006D4800F0A8FD04E101224FF480716A489D
:100F1C0000F0A1FD00224FF40071674800F09BFD2A
:100F2C0000224FF48061644800F095FD01224FF4DB
:100F3C000061614800F08FFD01224FF480515E4842
:100F4C0000F089FD00224FF400515B4800F083FD56
:100F5C0000224FF48041584800F07DFDD9E000227A
:100F6C004FF48071544800F076FD01224FF400716B
:100F7C00514800F070FD00224FF480614E4800F0A3
:100F8C006AFD00224FF400614B4800F064FD012221
:100F9C004FF48051484800F05EFD00224FF40051A0
:100FAC00454800F058FD00224FF48041424800F0C3
:100FBC0052FDAEE000224FF480713F4800F04BFD33
:100FCC0001224FF400713C4800F045FD00224FF423
:100FDC008061394800F03FFD00224FF40061364833
:100FEC0000F039FD00224FF48051334800F033FDFE
:100FFC0000224FF40051304800F02DFD00224FF438
:10100C0080412D4800F027FD83E000224FF48071D1
:10101C00294800F020FD00224FF40071264800F012
:10102C001AFD00224FF48061234800F014FD0122C8
:10103C004FF40061204800F00EFD01224FF4805166
:10104C001D4800F008FD01224FF400511A4800F031
:10105C0002FD01224FF48041174800F0FCFC58E0DF
:10106C0000224FF48071144800F0F5FC00224FF47C
:10107C000071114800F0EFFC00224FF480610E4823
:10108C0000F0E9FC00224FF400610B4800F0E3FC97
:10109C0000224FF48051084800F0DDFC00224FF490
:1010AC000051054800F0D7FC00224FF48041024863
:1010BC0000F0D1FC2DE000BF0008014000224FF4ED
:1010CC008071164800F0C7FC00224FF400711348E1
:1010DC0000F0C1FC00224FF48061104800F0BBFC12
:1010EC0000224FF400610D4800F0B5FC01224FF4D2
:1010FC0080510A4800F0AFFC00224FF40051074821
:10110C0000F0A9FC00224FF48041044800F0A3FC3D
:10111C0000BF00BF0837BD4680BD00BF00080140BE
:10112C0080B483B000AF786039607B68094A82FB79
:10113C0003129210DB17D21A07493B6841F823209F
:10114C00064A3B68002142F8231000BF0C37BD460D
:10115C0080BC704767666666CC000020F4000020F7
:10116C0080B483B000AF00237B601CE0124A7B6824
:10117C0052F82330002B13DD0F4A7B6852F82330D2
:10118C005A1E0D497B6841F823200B4A7B6852F8A4
:10119C002330002B04D1094A7B68012142F823102B
:1011AC007B6801337B607B68092BDFDD00BF00BFF0
:1011BC000C37BD4680BC7047CC000020F4000020EA
:1011CC0080B485B000AF154B9B69144A43F0010302
:1011DC009361124B9B6903F00103BB60BB680F4B1F
:1011EC00DB690E4A43F08053D3610C4BDB6903F08F
:1011FC0080537B607B680A4B5B68FB60FB6823F069
:10120C00E063FB60FB6843F08063FB60044AFB68AF
:10121C00536000BF1437BD4680BC704700100240BD
:10122C000000014080B584B000AF78607B681B681B
:10123C00B3F1804F13D10C4BDB690B4A43F0010324
:10124C00D361094BDB6903F00103FB60FB680022EF
:10125C0000211C2000F035FA1C2000F04EFA00BFD3
:10126C001037BD4680BD00BF0010024080B400AFF7
:10127C0000BFFDE780B400AF00BFFDE780B400AF56
:10128C0000BFFDE780B400AF00BFFDE780B400AF46
:10129C0000BFFDE780B400AF00BFBD4680BC704707
:1012AC0080B400AF00BFBD4680BC704780B400AFB7
:1012BC0000BFBD4680BC704780B500AF00F00EF992
:1012CC0000BF80BD80B500AF024801F057F800BFE9
:1012DC0080BD00BF8400002080B400AF00BFBD46BD
:1012EC0080BC704780B500AF002208210E4800F08A
:1012FC00B2FB012210210C4800F0ADFB0022202192
:10130C00094800F0A8FB01220121074800F0A3FBCB
:10131C0000220221044800F09EFB00220421024816
:10132C0000F099FB00BF80BD000C014080B500AF00
:10133C00002208210E4800F08EFB002210210C48E0
:10134C0000F089FB01222021094800F084FB0122D6
:10135C000121074800F07FFB00220221044800F025
:10136C007AFB00220421024800F075FB00BF80BD0F
:10137C00000C014080B500AF012208210E4800F09E
:10138C006AFB002210210C4800F065FB0022202192
:10139C00094800F060FB00220121074800F05BFBCC
:1013AC0001220221044800F056FB002204210248CD
:1013BC0000F051FB00BF80BD000C014080B500AFB8
:1013CC00012208210E4800F046FB002210210C4897
:1013DC0000F041FB00222021094800F03CFB0022D8
:1013EC000121074800F037FB00220221044800F0DD
:1013FC0032FB01220421024800F02DFB00BF80BD0E
:10140C00000C0140FFF768FF0B480C490C4A002305
:10141C0002E0D458C4500433C4188C42F9D3094A9E
:10142C00094C002301E013600432A242FBD301F00B
:10143C00EDFAFFF7D5F87047000000205C000020A3
:10144C00A42A00085C00002020010020FEE7000018
:10145C0080B500AF084B1B68074A43F010031360BC
:10146C00032000F023F90F2000F008F8FFF7A8FE86
:10147C000023184680BD00BF0020024080B582B01A
:10148C0000AF7860124B1A68124B1B7819464FF458
:10149C007A73B3FBF1F3B2FBF3F3184600F03BF9AC
:1014AC000346002B01D001230EE07B680F2B0AD8DA
:1014BC00002279684FF0FF3000F003F9064A7B6890
:1014CC001360002300E0012318460837BD4680BD99
:1014DC0050000020580000205400002080B400AFC1
:1014EC00054B1B781A46054B1B681344034A1360C3
:1014FC0000BFBD4680BC7047580000201C01002076
:10150C0080B400AF024B1B681846BD4680BC7047C8
:10151C001C01002080B485B000AF78607B6803F0BC
:10152C000703FB600C4BDB68BB60BA684FF6FF032C
:10153C001340BB60FB681A02BB68134343F0BF63E4
:10154C0043F40033BB60044ABB68D36000BF14375C
:10155C00BD4680BC704700BF00ED00E080B400AF1A
:10156C00044BDB681B0A03F007031846BD4680BC1E
:10157C00704700BF00ED00E080B483B000AF0346BD
:10158C00FB7197F90730002B0BDBFB7903F01F0283
:10159C00064997F907305B09012000FA02F241F87D
:1015AC00232000BF0C37BD4680BC704700E100E033
:1015BC0080B483B000AF03463960FB7197F90730F4
:1015CC00002B0ADB3B68DAB20C4997F907301201A1
:1015DC00D2B20B4483F800230AE03B68DAB2084924
:1015EC00FB7903F00F03043B1201D2B20B441A76C1
:1015FC0000BF0C37BD4680BC704700BF00E100E067
:10160C0000ED00E080B489B000AFF860B9607A609A
:10161C00FB6803F00703FB61FB69C3F10703042BB1
:10162C0028BF0423BB61FB690433062B02D9FB6979
:10163C00033B00E000237B614FF0FF32BB6902FAF1
:10164C0003F3DA43BB681A407B699A404FF0FF31D1
:10165C007B6901FA03F3D9437B680B4013431846AB
:10166C002437BD4680BC704780B582B000AF78602F
:10167C007B68013BB3F1807F01D301230FE00A4A61
:10168C007B68013B53600F214FF0FF30FFF790FF59
:10169C00054B00229A60044B07221A60002318465F
:1016AC000837BD4680BD00BF10E000E080B582B0B9
:1016BC0000AF78607868FFF72DFF00BF0837BD4694
:1016CC0080BD80B586B000AF0346B9607A60FB730D
:1016DC0000237B61FFF742FF78617A68B96878690B
:1016EC00FFF790FF024697F90F3011461846FFF7A7
:1016FC005FFF00BF1837BD4680BD80B582B000AF1C
:10170C000346FB7197F907301846FFF735FF00BF0A
:10171C000837BD4680BD80B582B000AF7860786870
:10172C00FFF7A2FF034618460837BD4680BD0000F0
:10173C0080B48BB000AF7860396000237B620023EB
:10174C003B6261E101227B6A02FA03F3FB613B68B5
:10175C001B68FA691340BB61BA69FB699A4240F095
:10176C0050813B685B68974A93425ED0954A93429E
:10177C0075D8954A934258D0934A93426FD8934A5E
:10178C00934252D0914A934269D8914A93424CD099
:10179C008F4A934263D88F4A934246D08D4A9342E4
:1017AC005DD8122B2AD8122B59D801A252F823F04B
:1017BC0037180008111800082318000865180008CD
:1017CC006B1800086B1800086B1800086B180008E1
:1017DC006B1800086B1800086B1800086B180008D1
:1017EC006B1800086B1800086B1800086B180008C1
:1017FC006B180008191800082D180008764A934237
:10180C0013D02CE03B68DB683B6229E03B68DB686B
:10181C0004333B6224E03B68DB6808333B621FE027
:10182C003B68DB680C333B621AE03B689B68002B1F
:10183C0002D104233B6213E03B689B68012B05D16A
:10184C0008233B627B68FA691A6109E008233B6252
:10185C007B68FA695A6103E000233B6200E000BF39
:10186C00BB69FF2B01D87B6801E07B6804337B618B
:10187C00BB69FF2B02D87B6A9B0002E07B6A083BAA
:10188C009B003B617B691A680F213B6901FA03F3EA
:10189C00DB431A40396A3B6901FA03F31A437B694B
:1018AC001A603B685B6803F08053002B00F0A98042
:1018BC004A4B9B69494A43F001039361474B9B692F
:1018CC0003F00103BB60BB68454A7B6A9B0802338B
:1018DC0052F82330FB607B6A03F003039B000F225A
:1018EC0002FA03F3DB43FA681340FB607B683D4A62
:1018FC0093420DD07B683C4A934207D07B683B4AAD
:10190C00934201D1022304E0032302E0012300E00F
:10191C0000237A6A02F0030292009340FA681343A0
:10192C00FB602F497B6A9B080233FA6841F823203D
:10193C003B685B6803F48013002B06D02C4B9A6831
:10194C002B49BB6913438B6006E0294B9A68BB6932
:10195C00DB43274913408B603B685B6803F400133F
:10196C00002B06D0224BDA682149BB691343CB60AC
:10197C0006E01F4BDA68BB69DB431D491340CB60A3
:10198C003B685B6803F40033002B06D0184B5A6895
:10199C001749BB6913434B6006E0154B5A68BB698A
:1019AC00DB43134913404B603B685B6803F48033A3
:1019BC00002B1FD00E4B1A680D49BB6913430B60EB
:1019CC001FE000BF00003210000031100000221098
:1019DC000000211000001210000011100010024035
:1019EC000000014000080140000C014000100140C3
:1019FC00000401400B4B1A68BB69DB4309491340D7
:101A0C000B607B6A01337B623B681A687B6A22FA43
:101A1C0003F3002B7FF496AE00BF00BF2C37BD46FE
:101A2C0080BC70470004014080B485B000AF786082
:101A3C000B467B807B689A687B881340002B02D016
:101A4C000123FB7301E00023FB73FB7B1846143767
:101A5C00BD4680BC704780B483B000AF78600B4645
:101A6C007B8013467B707B78002B03D07A887B6855
:101A7C001A6103E07B881A047B681A6100BF0C377B
:101A8C00BD4680BC7047000080B586B000AF786062
:101A9C007B68002B01D1012372E27B681B6803F089
:101AAC000103002B00F08780924B5B6803F00C0362
:101ABC00042B0CD08F4B5B6803F00C03082B12D15A
:101ACC008C4B5B6803F48033B3F5803F0BD1894BAF
:101ADC001B6803F40033002B6CD07B685B68002B15
:101AEC0068D101234CE27B685B68B3F5803F06D17B
:101AFC00804B1B687F4A43F4803313602EE07B6875
:101B0C005B68002B0CD17B4B1B687A4A23F4803327
:101B1C001360784B1B68774A23F4802313601DE015
:101B2C007B685B68B3F5A02F0CD1724B1B68714AB4
:101B3C0043F4802313606F4B1B686E4A43F480336D
:101B4C0013600BE06B4B1B686A4A23F48033136001
:101B5C00684B1B68674A23F4802313607B685B68BF
:101B6C00002B13D0FFF7CCFC386108E0FFF7C8FC62
:101B7C0002463B69D31A642B01D9032300E25D4B67
:101B8C001B6803F40033002BF0D014E0FFF7B8FC13
:101B9C00386108E0FFF7B4FC02463B69D31A642BAA
:101BAC0001D90323ECE1534B1B6803F40033002BE6
:101BBC00F0D100E000BF7B681B6803F00203002B30
:101BCC0063D04C4B5B6803F00C03002B0BD0494BE0
:101BDC005B6803F00C03082B1CD1464B5B6803F4C9
:101BEC008033002B16D1434B1B6803F00203002BF0
:101BFC0005D07B681B69012B01D00123C0E13D4B53
:101C0C001B6823F0F8027B685B69DB0039491343DE
:101C1C000B603AE07B681B69002B20D0364B01220D
:101C2C001A60FFF76DFC386108E0FFF769FC0246AB
:101C3C003B69D31A022B01D90323A1E12D4B1B685D
:101C4C0003F00203002BF0D02A4B1B6823F0F802A0
:101C5C007B685B69DB00274913430B6015E0264B5F
:101C6C0000221A60FFF74CFC386108E0FFF748FCD3
:101C7C0002463B69D31A022B01D9032380E11D4B89
:101C8C001B6803F00203002BF0D17B681B6803F088
:101C9C000803002B3AD07B689B69002B19D0174B9B
:101CAC0001221A60FFF72CFC386108E0FFF728FCD2
:101CBC0002463B69D31A022B01D9032360E10D4B79
:101CCC005B6A03F00203002BF0D0012000F09CFAB9
:101CDC001CE00A4B00221A60FFF712FC38610FE07F
:101CEC00FFF70EFC02463B69D31A022B08D90323DB
:101CFC0046E100BF00100240000042428004424214
:101D0C00924B5B6A03F00203002BE9D17B681B68E2
:101D1C0003F00403002B00F0A6800023FB758B4B13
:101D2C00DB6903F08053002B0DD1884BDB69874AAC
:101D3C0043F08053D361854BDB6903F08053BB6068
:101D4C00BB680123FB75824B1B6803F48073002B6B
:101D5C0018D17F4B1B687E4A43F480731360FFF7E6
:101D6C00CFFB386108E0FFF7CBFB02463B69D31A87
:101D7C00642B01D9032303E1754B1B6803F48073B7
:101D8C00002BF0D07B68DB68012B06D16F4B1B6AF4
:101D9C006E4A43F0010313622DE07B68DB68002B75
:101DAC000CD16A4B1B6A694A23F001031362674B1F
:101DBC001B6A664A23F0040313621CE07B68DB6831
:101DCC00052B0CD1614B1B6A604A43F00403136270
:101DDC005E4B1B6A5D4A43F0010313620BE05B4BE5
:101DEC001B6A5A4A23F001031362584B1B6A574A69
:101DFC0023F0040313627B68DB68002B15D0FFF71C
:101E0C007FFB38610AE0FFF77BFB02463B69D31A84
:101E1C0041F28832934201D90323B1E04B4B1B6A48
:101E2C0003F00203002BEED014E0FFF769FB3861DE
:101E3C000AE0FFF765FB02463B69D31A41F2883290
:101E4C00934201D903239BE0404B1B6A03F002032E
:101E5C00002BEED1FB7D012B05D13C4BDB693B4AC2
:101E6C0023F08053D3617B68DB69002B00F0878003
:101E7C00364B5B6803F00C03082B61D07B68DB6985
:101E8C00022B46D1334B00221A60FFF739FB386125
:101E9C0008E0FFF735FB02463B69D31A022B01D948
:101EAC0003236DE0294B1B6803F00073002BF0D16A
:101EBC007B681B6AB3F5803F08D1244B5B6823F425
:101ECC0000327B689B68214913434B601F4B5B6856
:101EDC0023F474127B68196A7B685B6A0B431B4999
:101EEC0013434B601B4B01221A60FFF709FB38614F
:101EFC0008E0FFF705FB02463B69D31A022B01D918
:101F0C0003233DE0114B1B6803F00073002BF0D052
:101F1C0035E0104B00221A60FFF7F2FA386108E046
:101F2C00FFF7EEFA02463B69D31A022B01D90323C1
:101F3C0026E0064B1B6803F00073002BF0D11EE06B
:101F4C007B68DB69012B07D1012319E000100240EB
:101F5C0000700040600042420B4B5B68FB60FB680A
:101F6C0003F480327B681B6A9A4206D1FB6803F447
:101F7C0070127B685B6A9A4201D0012300E0002357
:101F8C0018461837BD4680BD0010024080B584B09D
:101F9C0000AF786039607B68002B01D10123D0E061
:101FAC006A4B1B6803F007033A689A4210D9674BD7
:101FBC001B6823F0070265493B6813430B60634BB6
:101FCC001B6803F007033A689A4201D00123B8E07A
:101FDC007B681B6803F00203002B20D07B681B6816
:101FEC0003F00403002B05D0594B5B68584A43F4AB
:101FFC00E06353607B681B6803F00803002B05D07B
:10200C00534B5B68524A43F460535360504B5B68CC
:10201C0023F0F0027B689B684D4913434B607B684F
:10202C001B6803F00103002B40D07B685B68012B1D
:10203C0007D1474B1B6803F40033002B15D1012348
:10204C007FE07B685B68022B07D1414B1B6803F078
:10205C000073002B09D1012373E03D4B1B6803F087
:10206C000203002B01D101236BE0394B5B6823F099
:10207C0003027B685B68364913434B60FFF740FAF9
:10208C00F8600AE0FFF73CFA0246FB68D31A41F20B
:10209C008832934201D9032353E02D4B5B6803F044
:1020AC000C027B685B689B009A42EBD1274B1B6848
:1020BC0003F007033A689A4210D2244B1B6823F0B2
:1020CC00070222493B6813430B60204B1B6803F04B
:1020DC0007033A689A4201D0012332E07B681B68FF
:1020EC0003F00403002B08D0194B5B6823F4E06267
:1020FC007B68DB68164913434B607B681B6803F0F5
:10210C000803002B09D0124B5B6823F460527B68E8
:10211C001B69DB000E4913434B6000F021F80246AB
:10212C000B4B5B681B0903F00F030A49CB5C22FACB
:10213C0003F3094A1360094B1B681846FFF79EF915
:10214C00002318461037BD4680BD00BF002002405A
:10215C0000100240782A0008500000205400002093
:10216C0080B487B000AF0023FB600023BB6000236A
:10217C007B6100237B6000233B611E4B5B68FB6033
:10218C00FB6803F00C03042B02D0082B03D027E0D0
:10219C00194B3B6127E0FB689B0C03F00F03174ABC
:1021AC00D35C7B60FB6803F48033002B10D0114BA5
:1021BC005B685B0C03F00103114AD35CBB607B686A
:1021CC000D4A03FB02F2BB68B2FBF3F37B6104E044
:1021DC007B680C4A02FB03F37B617B693B6102E089
:1021EC00054B3B6100BF3B6918461C37BD4680BCA4
:1021FC00704700BF0010024000127A00882A0008C5
:10220C00982A000800093D0080B485B000AF7860C2
:10221C000A4B1B680A4AA2FB03235B0A7A6802FB7F
:10222C0003F3FB6000BFFB685A1EFA60002BF9D168
:10223C0000BF00BF1437BD4680BC70475000002063
:10224C00D34D621080B582B000AF78607B68002BF4
:10225C0001D1012341E07B6893F83D30DBB2002BC8
:10226C0006D17B68002283F83C207868FEF7DAFF01
:10227C007B68022283F83D207B681A687B680433F4
:10228C001946104600F056FA7B68012283F8462066
:10229C007B68012283F83E207B68012283F83F2073
:1022AC007B68012283F840207B68012283F841205F
:1022BC007B68012283F842207B68012283F843204B
:1022CC007B68012283F844207B68012283F8452037
:1022DC007B68012283F83D20002318460837BD4651
:1022EC0080BD000080B485B000AF78607B6893F847
:1022FC003D30DBB2012B01D0012335E07B6802229B
:10230C0083F83D207B681B68DA687B681B6842F0A9
:10231C000102DA607B681B68164A934209D07B681D
:10232C001B68B3F1804F04D07B681B68124A934240
:10233C0011D17B681B689B6803F00703FB60FB688B
:10234C00062B10D07B681B681A687B681B6842F0F0
:10235C0001021A6007E07B681B681A687B681B68BF
:10236C0042F001021A60002318461437BD4680BCA7
:10237C00704700BF002C01400004004080B584B0C1
:10238C0000AF78607B681B68DB68FB607B681B6850
:10239C001B69BB60BB6803F00203002B20D0FB68F9
:1023AC0003F00203002B1BD07B681B686FF002024A
:1023BC001A617B6801221A777B681B689B6903F0A2
:1023CC000303002B03D0786800F098F905E07868D7
:1023DC0000F08BF9786800F09AF97B6800221A7784
:1023EC00BB6803F00403002B20D0FB6803F004034C
:1023FC00002B1BD07B681B686FF004021A617B6892
:10240C0002221A777B681B689B6903F44073002BCC
:10241C0003D0786800F072F905E0786800F065F98F
:10242C00786800F074F97B6800221A77BB6803F0B7
:10243C000803002B20D0FB6803F00803002B1BD0F3
:10244C007B681B686FF008021A617B6804221A779C
:10245C007B681B68DB6903F00303002B03D07868EF
:10246C0000F04CF905E0786800F03FF9786800F06E
:10247C004EF97B6800221A77BB6803F01003002B1F
:10248C0020D0FB6803F01003002B1BD07B681B686B
:10249C006FF010021A617B6808221A777B681B6840
:1024AC00DB6903F44073002B03D0786800F026F945
:1024BC0005E0786800F019F9786800F028F97B6875
:1024CC0000221A77BB6803F00103002B0CD0FB68C9
:1024DC0003F00103002B07D07B681B686FF001022F
:1024EC001A617868FEF796F9BB6803F08003002B3D
:1024FC000CD0FB6803F08003002B07D07B681B68B3
:10250C006FF080021A61786800F06FFABB6803F014
:10251C004003002B0CD0FB6803F04003002B07D0CA
:10252C007B681B686FF040021A61786800F0F8F85D
:10253C00BB6803F02003002B0CD0FB6803F02003D6
:10254C00002B07D07B681B686FF020021A6178683B
:10255C0000F042FA00BF1037BD4680BD80B584B094
:10256C0000AF786039600023FB737B6893F83C30D4
:10257C00012B01D10223B4E07B68012283F83C20BB
:10258C007B68022283F83D207B681B689B68BB60DC
:10259C00BB6823F07703BB60BB6823F47F43BB604D
:1025AC007B681B68BA689A603B681B68B3F5005F70
:1025BC003ED0B3F5005F00F28780B3F5805F00F08A
:1025CC008680B3F5805F7FD8702B1AD0702B7BD8A8
:1025DC00602B50D0602B77D8502B3CD0502B73D81D
:1025EC00402B58D0402B6FD8302B64D0302B6BD86D
:1025FC00202B60D0202B67D8002B5CD0102B5AD00E
:10260C0062E07B6818683B6899683B685A683B686D
:10261C00DB6800F06AF97B681B689B68BB60BB6871
:10262C0043F07703BB607B681B68BA689A604FE025
:10263C007B6818683B6899683B685A683B68DB683C
:10264C0000F053F97B681B689A687B681B6842F43E
:10265C0080429A603CE07B6818683B6859683B682C
:10266C00DB681A4600F0CAF87B681B6850211846D4
:10267C0000F021F92CE07B6818683B6859683B68CE
:10268C00DB681A4600F0E8F87B681B686021184686
:10269C0000F011F91CE07B6818683B6859683B68CE
:1026AC00DB681A4600F0AAF87B681B6840211846C4
:1026BC0000F001F90CE07B681A683B681B6819464E
:1026CC00104600F0F8F803E00123FB7300E000BFB4
:1026DC007B68012283F83D207B68002283F83C2034
:1026EC00FB7B18461037BD4680BD80B483B000AF6D
:1026FC00786000BF0C37BD4680BC704780B483B097
:10270C0000AF786000BF0C37BD4680BC704780B40A
:10271C0083B000AF786000BF0C37BD4680BC7047FB
:10272C0080B483B000AF786000BF0C37BD4680BC6E
:10273C007047000080B485B000AF786039607B686A
:10274C001B68FB607B682B4A934207D07B68B3F114
:10275C00804F03D07B68284A934208D1FB6823F052
:10276C007003FB603B685B68FA681343FB607B6833
:10277C00204A934207D07B68B3F1804F03D07B682B
:10278C001D4A934208D1FB6823F44073FB603B68FD
:10279C00DB68FA681343FB60FB6823F080023B683C
:1027AC005B691343FB607B68FA681A603B689A6844
:1027BC007B68DA623B681A687B689A627B680D4AB0
:1027CC00934203D13B681A697B681A637B680122C8
:1027DC005A617B681B6903F00103002B05D07B68F1
:1027EC001B6923F001027B681A6100BF1437BD46D8
:1027FC0080BC7047002C01400004004080B487B0BE
:10280C0000AFF860B9607A60FB681B6A7B61FB689B
:10281C001B6A23F00102FB681A62FB689B693B612F
:10282C003B6923F0F0033B617B681B013A6913435E
:10283C003B617B6923F00A037B617A69BB681343B4
:10284C007B61FB683A699A61FB687A691A6200BF1E
:10285C001C37BD4680BC704780B487B000AFF860B1
:10286C00B9607A60FB681B6A7B61FB681B6A23F0AA
:10287C001002FB681A62FB689B693B613B6923F49D
:10288C0070433B617B681B033A6913433B617B6973
:10289C0023F0A0037B61BB681B017A6913437B6146
:1028AC00FB683A699A61FB687A691A6200BF1C3747
:1028BC00BD4680BC704780B485B000AF786039608D
:1028CC007B689B68FB60FB6823F07003FB603A68D5
:1028DC00FB68134343F00703FB607B68FA689A605C
:1028EC0000BF1437BD4680BC704780B487B000AFC2
:1028FC00F860B9607A603B60FB689B687B617B69C0
:10290C0023F47F437B613B681A027B681A43BB68E4
:10291C0013437A6913437B61FB687A699A6000BF41
:10292C001C37BD4680BC704780B485B000AF786062
:10293C0039607B6893F83C30012B01D1022341E0D4
:10294C007B68012283F83C207B68022283F83D20BF
:10295C007B681B685B68FB607B681B689B68BB6063
:10296C00FB6823F07003FB603B681B68FA68134339
:10297C00FB607B681B68FA685A607B681B68144AAA
:10298C00934209D07B681B68B3F1804F04D07B68FD
:10299C001B68104A93420CD1BB6823F08003BB60C8
:1029AC003B685B68BA681343BB607B681B68BA689A
:1029BC009A607B68012283F83D207B68002283F8B3
:1029CC003C20002318461437BD4680BC704700BF1E
:1029DC00002C01400004004080B483B000AF78604C
:1029EC0000BF0C37BD4680BC704780B483B000AFCD
:1029FC00786000BF0C37BD4680BC7047034602446C
:102A0C00934200D1704703F8011BF9E770B500261B
:102A1C000C4D0D4C641BA410A64209D100F01AF801
:102A2C0000260A4D0A4C641BA410A64205D170BDA9
:102A3C0055F8043B98470136EEE755F8043B9847A8
:102A4C000136F2E79C2A00089C2A00089C2A000800
:102A5C00A02A0008F8B500BFF8BC08BC9E46704719
:0C2A6C00F8B500BFF8BC08BC9E467047DF
:102A78000000000000000000010203040607080926
:102A880002030405060708090A0B0C0D0E0F1010A7
:042A98000102000037
:042A9C0031010008FC
:042AA0000D0100081C
:102AA400010000000400000002000000010000001A
:102AB400040000000200000001000000010000000A
:102AC40001000000010000000100000001000000FE
:102AD40001000000010000000100000001000000EE
:102AE400010000000100000001000000C800000017
:0C2AF40000127A00100000000100000039
:0400000508001411CA
:00000001FF
